{
  "contractName": "News",
  "abi": [
    {
      "anonymous": false,
      "inputs": [
        {
          "indexed": false,
          "internalType": "uint256",
          "name": "id",
          "type": "uint256"
        },
        {
          "indexed": false,
          "internalType": "uint256",
          "name": "Donation",
          "type": "uint256"
        },
        {
          "indexed": false,
          "internalType": "address",
          "name": "Reporter",
          "type": "address"
        }
      ],
      "name": "fundedPost",
      "type": "event"
    },
    {
      "anonymous": false,
      "inputs": [
        {
          "indexed": false,
          "internalType": "uint256",
          "name": "id",
          "type": "uint256"
        },
        {
          "indexed": false,
          "internalType": "string",
          "name": "_ContentHash",
          "type": "string"
        },
        {
          "indexed": false,
          "internalType": "int256",
          "name": "Likes",
          "type": "int256"
        },
        {
          "indexed": false,
          "internalType": "address",
          "name": "Reporter",
          "type": "address"
        }
      ],
      "name": "likedPost",
      "type": "event"
    },
    {
      "anonymous": false,
      "inputs": [
        {
          "indexed": false,
          "internalType": "uint256",
          "name": "id",
          "type": "uint256"
        },
        {
          "indexed": false,
          "internalType": "string",
          "name": "_ContentHash",
          "type": "string"
        },
        {
          "indexed": false,
          "internalType": "string",
          "name": "_SummaryHash",
          "type": "string"
        },
        {
          "indexed": false,
          "internalType": "int256",
          "name": "Likes",
          "type": "int256"
        },
        {
          "indexed": false,
          "internalType": "bool",
          "name": "isNSFW",
          "type": "bool"
        },
        {
          "indexed": false,
          "internalType": "uint256",
          "name": "Donation",
          "type": "uint256"
        },
        {
          "indexed": false,
          "internalType": "address",
          "name": "Reporter",
          "type": "address"
        }
      ],
      "name": "newPost",
      "type": "event"
    },
    {
      "inputs": [],
      "name": "Name",
      "outputs": [
        {
          "internalType": "string",
          "name": "",
          "type": "string"
        }
      ],
      "stateMutability": "view",
      "type": "function",
      "constant": true
    },
    {
      "inputs": [],
      "name": "PostCount",
      "outputs": [
        {
          "internalType": "uint256",
          "name": "",
          "type": "uint256"
        }
      ],
      "stateMutability": "view",
      "type": "function",
      "constant": true
    },
    {
      "inputs": [
        {
          "internalType": "uint256",
          "name": "",
          "type": "uint256"
        }
      ],
      "name": "Posts",
      "outputs": [
        {
          "internalType": "uint256",
          "name": "id",
          "type": "uint256"
        },
        {
          "internalType": "string",
          "name": "ContentHash",
          "type": "string"
        },
        {
          "internalType": "string",
          "name": "SummaryHash",
          "type": "string"
        },
        {
          "internalType": "int256",
          "name": "Likes",
          "type": "int256"
        },
        {
          "internalType": "bool",
          "name": "isNSFW",
          "type": "bool"
        },
        {
          "internalType": "uint256",
          "name": "Donation",
          "type": "uint256"
        },
        {
          "internalType": "address",
          "name": "Reporter",
          "type": "address"
        }
      ],
      "stateMutability": "view",
      "type": "function",
      "constant": true
    },
    {
      "inputs": [
        {
          "internalType": "string",
          "name": "_ContentHash",
          "type": "string"
        },
        {
          "internalType": "string",
          "name": "_SummaryHash",
          "type": "string"
        },
        {
          "internalType": "bool",
          "name": "_isNSFW",
          "type": "bool"
        }
      ],
      "name": "createPost",
      "outputs": [],
      "stateMutability": "nonpayable",
      "type": "function"
    },
    {
      "inputs": [
        {
          "internalType": "uint256",
          "name": "_id",
          "type": "uint256"
        }
      ],
      "name": "likePost",
      "outputs": [],
      "stateMutability": "nonpayable",
      "type": "function"
    },
    {
      "inputs": [
        {
          "internalType": "uint256",
          "name": "_id",
          "type": "uint256"
        }
      ],
      "name": "fundPost",
      "outputs": [],
      "stateMutability": "payable",
      "type": "function",
      "payable": true
    }
  ],
  "bytecode": "0x60806040526040518060400160405280600781526020017f50617472696b610000000000000000000000000000000000000000000000000081525060009080519060200190620000519291906200006b565b5060006002553480156200006457600080fd5b5062000180565b82805462000079906200014a565b90600052602060002090601f0160209004810192826200009d5760008555620000e9565b82601f10620000b857805160ff1916838001178555620000e9565b82800160010185558215620000e9579182015b82811115620000e8578251825591602001919060010190620000cb565b5b509050620000f89190620000fc565b5090565b5b8082111562000117576000816000905550600101620000fd565b5090565b7f4e487b7100000000000000000000000000000000000000000000000000000000600052602260045260246000fd5b600060028204905060018216806200016357607f821691505b602082108114156200017a57620001796200011b565b5b50919050565b610fc280620001906000396000f3fe6080604052600436106100555760003560e01c80634fafef1a1461005a5780636bfd13271461009d578063725009d3146100b95780638052474d146100e2578063a2d1eceb1461010d578063c250bd8114610138575b600080fd5b34801561006657600080fd5b50610081600480360381019061007c9190610817565b610161565b6040516100949796959493929190610961565b60405180910390f35b6100b760048036038101906100b29190610817565b6102e0565b005b3480156100c557600080fd5b506100e060048036038101906100db9190610817565b610402565b005b3480156100ee57600080fd5b506100f76104b9565b60405161010491906109de565b60405180910390f35b34801561011957600080fd5b50610122610547565b60405161012f9190610a00565b60405180910390f35b34801561014457600080fd5b5061015f600480360381019061015a9190610b7c565b61054d565b005b600160205280600052604060002060009150905080600001549080600101805461018a90610c36565b80601f01602080910402602001604051908101604052809291908181526020018280546101b690610c36565b80156102035780601f106101d857610100808354040283529160200191610203565b820191906000526020600020905b8154815290600101906020018083116101e657829003601f168201915b50505050509080600201805461021890610c36565b80601f016020809104026020016040519081016040528092919081815260200182805461024490610c36565b80156102915780601f1061026657610100808354040283529160200191610291565b820191906000526020600020905b81548152906001019060200180831161027457829003601f168201915b5050505050908060030154908060040160009054906101000a900460ff16908060050154908060060160009054906101000a900473ffffffffffffffffffffffffffffffffffffffff16905087565b6000811180156102f257506002548111155b6102fb57600080fd5b600060016000838152602001908152602001600020905060008160060160009054906101000a900473ffffffffffffffffffffffffffffffffffffffff1690508073ffffffffffffffffffffffffffffffffffffffff166108fc349081150290604051600060405180830381858888f19350505050158015610381573d6000803e3d6000fd5b503482600501546103929190610c97565b82600501819055507f3e7cfd49d2e5d1c40c65eeb2005ddf8ffe4f0c0cc5feb8110001422390ccd18e8383600501548460060160009054906101000a900473ffffffffffffffffffffffffffffffffffffffff166040516103f593929190610ced565b60405180910390a1505050565b60008111801561041457506002548111155b61041d57600080fd5b6000600160008381526020019081526020016000209050600181600301546104459190610d24565b81600301819055507fb54f6a19250995d322b96687a673276b98b49479f0a0e1402668de3423155f32828260010183600301548460060160009054906101000a900473ffffffffffffffffffffffffffffffffffffffff166040516104ad9493929190610e4d565b60405180910390a15050565b600080546104c690610c36565b80601f01602080910402602001604051908101604052809291908181526020018280546104f290610c36565b801561053f5780601f106105145761010080835404028352916020019161053f565b820191906000526020600020905b81548152906001019060200180831161052257829003601f168201915b505050505081565b60025481565b600083511161055b57600080fd5b600082511161056957600080fd5b600073ffffffffffffffffffffffffffffffffffffffff163373ffffffffffffffffffffffffffffffffffffffff1614156105a357600080fd5b60016002546105b29190610c97565b6002819055506040518060e001604052806002548152602001848152602001838152602001600081526020018215158152602001600081526020013373ffffffffffffffffffffffffffffffffffffffff1681525060016000600254815260200190815260200160002060008201518160000155602082015181600101908051906020019061064292919061072a565b50604082015181600201908051906020019061065f92919061072a565b506060820151816003015560808201518160040160006101000a81548160ff02191690831515021790555060a0820151816005015560c08201518160060160006101000a81548173ffffffffffffffffffffffffffffffffffffffff021916908373ffffffffffffffffffffffffffffffffffffffff1602179055509050507f7cd97b2fca7ad000e06635bace1dbb606999e0774b51129eb32b6ad1beab0804600254848460008560003360405161071d9796959493929190610f0f565b60405180910390a1505050565b82805461073690610c36565b90600052602060002090601f016020900481019282610758576000855561079f565b82601f1061077157805160ff191683800117855561079f565b8280016001018555821561079f579182015b8281111561079e578251825591602001919060010190610783565b5b5090506107ac91906107b0565b5090565b5b808211156107c95760008160009055506001016107b1565b5090565b6000604051905090565b600080fd5b600080fd5b6000819050919050565b6107f4816107e1565b81146107ff57600080fd5b50565b600081359050610811816107eb565b92915050565b60006020828403121561082d5761082c6107d7565b5b600061083b84828501610802565b91505092915050565b61084d816107e1565b82525050565b600081519050919050565b600082825260208201905092915050565b60005b8381101561088d578082015181840152602081019050610872565b8381111561089c576000848401525b50505050565b6000601f19601f8301169050919050565b60006108be82610853565b6108c8818561085e565b93506108d881856020860161086f565b6108e1816108a2565b840191505092915050565b6000819050919050565b6108ff816108ec565b82525050565b60008115159050919050565b61091a81610905565b82525050565b600073ffffffffffffffffffffffffffffffffffffffff82169050919050565b600061094b82610920565b9050919050565b61095b81610940565b82525050565b600060e082019050610976600083018a610844565b818103602083015261098881896108b3565b9050818103604083015261099c81886108b3565b90506109ab60608301876108f6565b6109b86080830186610911565b6109c560a0830185610844565b6109d260c0830184610952565b98975050505050505050565b600060208201905081810360008301526109f881846108b3565b905092915050565b6000602082019050610a156000830184610844565b92915050565b600080fd5b600080fd5b7f4e487b7100000000000000000000000000000000000000000000000000000000600052604160045260246000fd5b610a5d826108a2565b810181811067ffffffffffffffff82111715610a7c57610a7b610a25565b5b80604052505050565b6000610a8f6107cd565b9050610a9b8282610a54565b919050565b600067ffffffffffffffff821115610abb57610aba610a25565b5b610ac4826108a2565b9050602081019050919050565b82818337600083830152505050565b6000610af3610aee84610aa0565b610a85565b905082815260208101848484011115610b0f57610b0e610a20565b5b610b1a848285610ad1565b509392505050565b600082601f830112610b3757610b36610a1b565b5b8135610b47848260208601610ae0565b91505092915050565b610b5981610905565b8114610b6457600080fd5b50565b600081359050610b7681610b50565b92915050565b600080600060608486031215610b9557610b946107d7565b5b600084013567ffffffffffffffff811115610bb357610bb26107dc565b5b610bbf86828701610b22565b935050602084013567ffffffffffffffff811115610be057610bdf6107dc565b5b610bec86828701610b22565b9250506040610bfd86828701610b67565b9150509250925092565b7f4e487b7100000000000000000000000000000000000000000000000000000000600052602260045260246000fd5b60006002820490506001821680610c4e57607f821691505b60208210811415610c6257610c61610c07565b5b50919050565b7f4e487b7100000000000000000000000000000000000000000000000000000000600052601160045260246000fd5b6000610ca2826107e1565b9150610cad836107e1565b9250827fffffffffffffffffffffffffffffffffffffffffffffffffffffffffffffffff03821115610ce257610ce1610c68565b5b828201905092915050565b6000606082019050610d026000830186610844565b610d0f6020830185610844565b610d1c6040830184610952565b949350505050565b6000610d2f826108ec565b9150610d3a836108ec565b9250817f7fffffffffffffffffffffffffffffffffffffffffffffffffffffffffffffff03831360008312151615610d7557610d74610c68565b5b817f8000000000000000000000000000000000000000000000000000000000000000038312600083121615610dad57610dac610c68565b5b828201905092915050565b60008190508160005260206000209050919050565b60008154610dda81610c36565b610de4818661085e565b94506001821660008114610dff5760018114610e1157610e44565b60ff1983168652602086019350610e44565b610e1a85610db8565b60005b83811015610e3c57815481890152600182019150602081019050610e1d565b808801955050505b50505092915050565b6000608082019050610e626000830187610844565b8181036020830152610e748186610dcd565b9050610e8360408301856108f6565b610e906060830184610952565b95945050505050565b6000819050919050565b6000819050919050565b6000610ec8610ec3610ebe84610e99565b610ea3565b6108ec565b9050919050565b610ed881610ead565b82525050565b6000610ef9610ef4610eef84610e99565b610ea3565b6107e1565b9050919050565b610f0981610ede565b82525050565b600060e082019050610f24600083018a610844565b8181036020830152610f3681896108b3565b90508181036040830152610f4a81886108b3565b9050610f596060830187610ecf565b610f666080830186610911565b610f7360a0830185610f00565b610f8060c0830184610952565b9897505050505050505056fea2646970667358221220926def2ec9c71b292e444368bde1ff1c24788666949fd663b95c047c750f647d64736f6c634300080b0033",
  "immutableReferences": {},
  "source": "// SPDX-License-Identifier: MIT\npragma solidity >=0.8.11;\n\ncontract News {\n    string public Name = 'Patrika';\n\n    // structure for post\n    struct Post {\n        uint256 id;\n        // news content\n        string ContentHash; // hash of ipfs text\n        string SummaryHash; // hash of ipfs summary text\n        int256 Likes; // Number of likes\n        // trasaction with every increase\n        bool isNSFW; // Flag if content is NSFW\n        uint256 Donation; // Donation by the users to the owner\n        address Reporter; // Reporter of the news\n    }\n\n    // Event to emit when new post is created\n    event newPost(\n        uint256 id,\n        string _ContentHash,\n        string _SummaryHash,\n        int256 Likes,\n        bool isNSFW,\n        uint256 Donation,\n        address Reporter\n    );\n\n    // Event to emit when a post is liked\n    event likedPost(\n        uint256 id,\n        string _ContentHash,\n        int256 Likes,\n        address Reporter\n    );\n\n    // Event for Donating a post\n    event fundedPost(uint256 id, uint256 Donation, address Reporter);\n\n    // Storing all the Posts\n    mapping(uint256 => Post) public Posts;\n\n    // Id of the post and post counts\n    uint256 public PostCount = 0;\n\n    function createPost(\n        string memory _ContentHash,\n        string memory _SummaryHash,\n        bool _isNSFW\n    ) public {\n        // Checking if content is empty\n        require(bytes(_ContentHash).length > 0);\n        // checking if symmary is empty\n        require(bytes(_SummaryHash).length > 0);\n        // making sure address is not null\n        require(msg.sender != address(0));\n\n        // increasing the count of Posts\n        PostCount = PostCount + 1;\n\n        // Posting the value of post\n        Posts[PostCount] = Post(\n            PostCount,\n            _ContentHash,\n            _SummaryHash,\n            0,\n            _isNSFW,\n            0,\n            msg.sender\n        );\n\n        // Emiting the newPost event on creation of new post\n        emit newPost(\n            PostCount,\n            _ContentHash,\n            _SummaryHash,\n            0,\n            _isNSFW,\n            0,\n            msg.sender\n        );\n    }\n\n    function likePost(uint256 _id) public {\n        // Checking if id is real\n        require(_id > 0 && _id <= PostCount);\n        // Fetching the Post\n        Post storage _post = Posts[_id];\n        // Liking the Post\n        _post.Likes = _post.Likes + 1;\n\n        emit likedPost(_id, _post.ContentHash, _post.Likes, _post.Reporter);\n    }\n\n    function fundPost(uint256 _id) public payable {\n        // cheking if id is real\n        require(_id > 0 && _id <= PostCount);\n        // Fetching the post\n        Post storage _post = Posts[_id];\n        // Getting the wallet address of the author\n        address _Reporter = _post.Reporter;\n        // Transferring the message value to the author\n        payable(address(_Reporter)).transfer(msg.value);\n        // Increasing the Donation amount counter\n        _post.Donation = _post.Donation + msg.value;\n\n        emit fundedPost(_id, _post.Donation, _post.Reporter);\n    }\n}\n",
  "sourcePath": "/home/parvg555/Desktop/Patrika/Patrika Website/apps/client/src/contracts/News.sol",
  "compiler": {
    "name": "solc",
    "version": "0.8.11+commit.d7f03943.Emscripten.clang"
  },
  "schemaVersion": "3.4.4",
  "updatedAt": "2022-02-27T08:01:55.327Z",
  "networkType": "ethereum",
  "devdoc": {
    "kind": "dev",
    "methods": {},
    "version": 1
  },
  "userdoc": {
    "kind": "user",
    "methods": {},
    "version": 1
  }
}